{
  "address": "0xBB32b5E46275ee1De376C028592b2427bF9dde26",
  "abi": [
    {
      "inputs": [
        {
          "internalType": "address",
          "name": "priceFeedAddress",
          "type": "address"
        }
      ],
      "stateMutability": "nonpayable",
      "type": "constructor"
    },
    {
      "inputs": [],
      "name": "NotOwner",
      "type": "error"
    },
    {
      "stateMutability": "payable",
      "type": "fallback"
    },
    {
      "inputs": [],
      "name": "MINIMUM_USD",
      "outputs": [
        {
          "internalType": "uint256",
          "name": "",
          "type": "uint256"
        }
      ],
      "stateMutability": "view",
      "type": "function"
    },
    {
      "inputs": [
        {
          "internalType": "address",
          "name": "",
          "type": "address"
        }
      ],
      "name": "addressToAmountFunded",
      "outputs": [
        {
          "internalType": "uint256",
          "name": "",
          "type": "uint256"
        }
      ],
      "stateMutability": "view",
      "type": "function"
    },
    {
      "inputs": [],
      "name": "fund",
      "outputs": [],
      "stateMutability": "payable",
      "type": "function"
    },
    {
      "inputs": [
        {
          "internalType": "uint256",
          "name": "",
          "type": "uint256"
        }
      ],
      "name": "funders",
      "outputs": [
        {
          "internalType": "address",
          "name": "",
          "type": "address"
        }
      ],
      "stateMutability": "view",
      "type": "function"
    },
    {
      "inputs": [],
      "name": "getVersion",
      "outputs": [
        {
          "internalType": "uint256",
          "name": "",
          "type": "uint256"
        }
      ],
      "stateMutability": "view",
      "type": "function"
    },
    {
      "inputs": [],
      "name": "i_owner",
      "outputs": [
        {
          "internalType": "address",
          "name": "",
          "type": "address"
        }
      ],
      "stateMutability": "view",
      "type": "function"
    },
    {
      "inputs": [],
      "name": "priceFeed",
      "outputs": [
        {
          "internalType": "contract AggregatorV3Interface",
          "name": "",
          "type": "address"
        }
      ],
      "stateMutability": "view",
      "type": "function"
    },
    {
      "inputs": [],
      "name": "withdraw",
      "outputs": [],
      "stateMutability": "nonpayable",
      "type": "function"
    },
    {
      "stateMutability": "payable",
      "type": "receive"
    }
  ],
  "transactionHash": "0xc1122182953ef4dcade7978956a29a1ae5f862549b1b27f96eec0816416db118",
  "args": [
    "0x694AA1769357215DE4FAC081bf1f309aDC325306"
  ],
  "numDeployments": 1,
  "solcInputHash": "c8a2acc05810ab2cc1cbec82d9a2763d",
  "bytecode": "0x60806040523480156200001157600080fd5b50604051620010d6380380620010d68339818101604052810190620000379190620000d7565b33600260006101000a81548173ffffffffffffffffffffffffffffffffffffffff021916908373ffffffffffffffffffffffffffffffffffffffff16021790555080600360006101000a81548173ffffffffffffffffffffffffffffffffffffffff021916908373ffffffffffffffffffffffffffffffffffffffff160217905550506200015c565b600081519050620000d18162000142565b92915050565b600060208284031215620000f057620000ef6200013d565b5b60006200010084828501620000c0565b91505092915050565b600062000116826200011d565b9050919050565b600073ffffffffffffffffffffffffffffffffffffffff82169050919050565b600080fd5b6200014d8162000109565b81146200015957600080fd5b50565b610f6a806200016c6000396000f3fe60806040526004361061007f5760003560e01c8063741bef1a1161004e578063741bef1a14610142578063b60d42881461016d578063dba6335f14610177578063dc0d3dff146101a25761008e565b80630d8e6e2c146100985780633ccfd60b146100c35780633e47d6f3146100da5780636b69a592146101175761008e565b3661008e5761008c6101df565b005b6100966101df565b005b3480156100a457600080fd5b506100ad610319565b6040516100ba9190610ab8565b60405180910390f35b3480156100cf57600080fd5b506100d86103b7565b005b3480156100e657600080fd5b5061010160048036038101906100fc9190610895565b6105f9565b60405161010e9190610ab8565b60405180910390f35b34801561012357600080fd5b5061012c610611565b6040516101399190610ab8565b60405180910390f35b34801561014e57600080fd5b5061015761061e565b6040516101649190610a5d565b60405180910390f35b6101756101df565b005b34801561018357600080fd5b5061018c610644565b6040516101999190610a42565b60405180910390f35b3480156101ae57600080fd5b506101c960048036038101906101c491906108c2565b61066a565b6040516101d69190610a42565b60405180910390f35b6802b5e3af16b188000061021e600360009054906101000a900473ffffffffffffffffffffffffffffffffffffffff16346106a990919063ffffffff16565b101561025f576040517f08c379a000000000000000000000000000000000000000000000000000000000815260040161025690610a98565b60405180910390fd5b346000803373ffffffffffffffffffffffffffffffffffffffff1673ffffffffffffffffffffffffffffffffffffffff16815260200190815260200160002060008282546102ad9190610aef565b925050819055506001339080600181540180825580915050600190039060005260206000200160009091909190916101000a81548173ffffffffffffffffffffffffffffffffffffffff021916908373ffffffffffffffffffffffffffffffffffffffff160217905550565b60008073694aa1769357215de4fac081bf1f309adc32530690508073ffffffffffffffffffffffffffffffffffffffff166354fd4d506040518163ffffffff1660e01b815260040160206040518083038186803b15801561037957600080fd5b505afa15801561038d573d6000803e3d6000fd5b505050506040513d601f19601f820116820180604052508101906103b191906108ef565b91505090565b600260009054906101000a900473ffffffffffffffffffffffffffffffffffffffff1673ffffffffffffffffffffffffffffffffffffffff163373ffffffffffffffffffffffffffffffffffffffff161461043e576040517f30cd747100000000000000000000000000000000000000000000000000000000815260040160405180910390fd5b60005b6001805490508110156104e95760006001828154811061046457610463610e20565b5b9060005260206000200160009054906101000a900473ffffffffffffffffffffffffffffffffffffffff16905060008060008373ffffffffffffffffffffffffffffffffffffffff1673ffffffffffffffffffffffffffffffffffffffff168152602001908152602001600020819055505080806104e190610d79565b915050610441565b50600067ffffffffffffffff81111561050557610504610e4f565b5b6040519080825280602002602001820160405280156105335781602001602082028036833780820191505090505b5060019080519060200190610549929190610785565b5060003373ffffffffffffffffffffffffffffffffffffffff164760405161057090610a2d565b60006040518083038185875af1925050503d80600081146105ad576040519150601f19603f3d011682016040523d82523d6000602084013e6105b2565b606091505b50509050806105f6576040517f08c379a00000000000000000000000000000000000000000000000000000000081526004016105ed90610a78565b60405180910390fd5b50565b60006020528060005260406000206000915090505481565b6802b5e3af16b188000081565b600360009054906101000a900473ffffffffffffffffffffffffffffffffffffffff1681565b600260009054906101000a900473ffffffffffffffffffffffffffffffffffffffff1681565b6001818154811061067a57600080fd5b906000526020600020016000915054906101000a900473ffffffffffffffffffffffffffffffffffffffff1681565b6000806106b5836106e5565b90506000670de0b6b3a764000085836106ce9190610c8d565b6106d89190610b45565b9050809250505092915050565b6000808273ffffffffffffffffffffffffffffffffffffffff1663feaf968c6040518163ffffffff1660e01b815260040160a06040518083038186803b15801561072e57600080fd5b505afa158015610742573d6000803e3d6000fd5b505050506040513d601f19601f82011682018060405250810190610766919061091c565b5050509150506402540be4008161077d9190610b76565b915050919050565b8280548282559060005260206000209081019282156107fe579160200282015b828111156107fd5782518260006101000a81548173ffffffffffffffffffffffffffffffffffffffff021916908373ffffffffffffffffffffffffffffffffffffffff160217905550916020019190600101906107a5565b5b50905061080b919061080f565b5090565b5b80821115610828576000816000905550600101610810565b5090565b60008135905061083b81610ed8565b92915050565b60008151905061085081610eef565b92915050565b60008135905061086581610f06565b92915050565b60008151905061087a81610f06565b92915050565b60008151905061088f81610f1d565b92915050565b6000602082840312156108ab576108aa610e7e565b5b60006108b98482850161082c565b91505092915050565b6000602082840312156108d8576108d7610e7e565b5b60006108e684828501610856565b91505092915050565b60006020828403121561090557610904610e7e565b5b60006109138482850161086b565b91505092915050565b600080600080600060a0868803121561093857610937610e7e565b5b600061094688828901610880565b955050602061095788828901610841565b94505060406109688882890161086b565b93505060606109798882890161086b565b925050608061098a88828901610880565b9150509295509295909350565b6109a081610ce7565b82525050565b6109af81610d43565b82525050565b60006109c2600b83610ade565b91506109cd82610e83565b602082019050919050565b60006109e5601b83610ade565b91506109f082610eac565b602082019050919050565b6000610a08600083610ad3565b9150610a1382610ed5565b600082019050919050565b610a2781610d23565b82525050565b6000610a38826109fb565b9150819050919050565b6000602082019050610a576000830184610997565b92915050565b6000602082019050610a7260008301846109a6565b92915050565b60006020820190508181036000830152610a91816109b5565b9050919050565b60006020820190508181036000830152610ab1816109d8565b9050919050565b6000602082019050610acd6000830184610a1e565b92915050565b600081905092915050565b600082825260208201905092915050565b6000610afa82610d23565b9150610b0583610d23565b9250827fffffffffffffffffffffffffffffffffffffffffffffffffffffffffffffffff03821115610b3a57610b39610dc2565b5b828201905092915050565b6000610b5082610d23565b9150610b5b83610d23565b925082610b6b57610b6a610df1565b5b828204905092915050565b6000610b8182610cf9565b9150610b8c83610cf9565b9250827f7fffffffffffffffffffffffffffffffffffffffffffffffffffffffffffffff0482116000841360008413161615610bcb57610bca610dc2565b5b817f80000000000000000000000000000000000000000000000000000000000000000583126000841260008413161615610c0857610c07610dc2565b5b827f80000000000000000000000000000000000000000000000000000000000000000582126000841360008412161615610c4557610c44610dc2565b5b827f7fffffffffffffffffffffffffffffffffffffffffffffffffffffffffffffff0582126000841260008412161615610c8257610c81610dc2565b5b828202905092915050565b6000610c9882610d23565b9150610ca383610d23565b9250817fffffffffffffffffffffffffffffffffffffffffffffffffffffffffffffffff0483118215151615610cdc57610cdb610dc2565b5b828202905092915050565b6000610cf282610d03565b9050919050565b6000819050919050565b600073ffffffffffffffffffffffffffffffffffffffff82169050919050565b6000819050919050565b600069ffffffffffffffffffff82169050919050565b6000610d4e82610d55565b9050919050565b6000610d6082610d67565b9050919050565b6000610d7282610d03565b9050919050565b6000610d8482610d23565b91507fffffffffffffffffffffffffffffffffffffffffffffffffffffffffffffffff821415610db757610db6610dc2565b5b600182019050919050565b7f4e487b7100000000000000000000000000000000000000000000000000000000600052601160045260246000fd5b7f4e487b7100000000000000000000000000000000000000000000000000000000600052601260045260246000fd5b7f4e487b7100000000000000000000000000000000000000000000000000000000600052603260045260246000fd5b7f4e487b7100000000000000000000000000000000000000000000000000000000600052604160045260246000fd5b600080fd5b7f43616c6c206661696c6564000000000000000000000000000000000000000000600082015250565b7f596f75206e65656420746f207370656e64206d6f726520455448210000000000600082015250565b50565b610ee181610ce7565b8114610eec57600080fd5b50565b610ef881610cf9565b8114610f0357600080fd5b50565b610f0f81610d23565b8114610f1a57600080fd5b50565b610f2681610d2d565b8114610f3157600080fd5b5056fea264697066735822122076b6b4e359614f1734a965f6fb9a26cb86a5b21fba7bbf9ceae0337542520ce464736f6c63430008070033",
  "devdoc": {
    "kind": "dev",
    "methods": {},
    "version": 1
  },
  "userdoc": {
    "kind": "user",
    "methods": {},
    "version": 1
  },
  "storageLayout": {
    "storage": [
      {
        "astId": 58,
        "contract": "contracts/FundMe.sol:FundMe",
        "label": "addressToAmountFunded",
        "offset": 0,
        "slot": "0",
        "type": "t_mapping(t_address,t_uint256)"
      },
      {
        "astId": 61,
        "contract": "contracts/FundMe.sol:FundMe",
        "label": "funders",
        "offset": 0,
        "slot": "1",
        "type": "t_array(t_address)dyn_storage"
      },
      {
        "astId": 63,
        "contract": "contracts/FundMe.sol:FundMe",
        "label": "i_owner",
        "offset": 0,
        "slot": "2",
        "type": "t_address"
      },
      {
        "astId": 73,
        "contract": "contracts/FundMe.sol:FundMe",
        "label": "priceFeed",
        "offset": 0,
        "slot": "3",
        "type": "t_contract(AggregatorV3Interface)45"
      }
    ],
    "types": {
      "t_address": {
        "encoding": "inplace",
        "label": "address",
        "numberOfBytes": "20"
      },
      "t_array(t_address)dyn_storage": {
        "base": "t_address",
        "encoding": "dynamic_array",
        "label": "address[]",
        "numberOfBytes": "32"
      },
      "t_contract(AggregatorV3Interface)45": {
        "encoding": "inplace",
        "label": "contract AggregatorV3Interface",
        "numberOfBytes": "20"
      },
      "t_mapping(t_address,t_uint256)": {
        "encoding": "mapping",
        "key": "t_address",
        "label": "mapping(address => uint256)",
        "numberOfBytes": "32",
        "value": "t_uint256"
      },
      "t_uint256": {
        "encoding": "inplace",
        "label": "uint256",
        "numberOfBytes": "32"
      }
    }
  }
}